{
  "contractName": "CoffeeShop",
  "abi": [
    {
      "inputs": [],
      "stateMutability": "nonpayable",
      "type": "constructor"
    },
    {
      "anonymous": false,
      "inputs": [
        {
          "indexed": false,
          "internalType": "address",
          "name": "customer",
          "type": "address"
        },
        {
          "indexed": false,
          "internalType": "uint256",
          "name": "productId",
          "type": "uint256"
        },
        {
          "indexed": false,
          "internalType": "uint256",
          "name": "amount",
          "type": "uint256"
        }
      ],
      "name": "PaymentMade",
      "type": "event"
    },
    {
      "anonymous": false,
      "inputs": [
        {
          "indexed": false,
          "internalType": "uint256",
          "name": "productId",
          "type": "uint256"
        },
        {
          "indexed": false,
          "internalType": "string",
          "name": "name",
          "type": "string"
        },
        {
          "indexed": false,
          "internalType": "uint256",
          "name": "price",
          "type": "uint256"
        }
      ],
      "name": "ProductAdded",
      "type": "event"
    },
    {
      "anonymous": false,
      "inputs": [
        {
          "indexed": false,
          "internalType": "uint256",
          "name": "productId",
          "type": "uint256"
        }
      ],
      "name": "ProductDeleted",
      "type": "event"
    },
    {
      "anonymous": false,
      "inputs": [
        {
          "indexed": false,
          "internalType": "uint256",
          "name": "productId",
          "type": "uint256"
        },
        {
          "indexed": false,
          "internalType": "string",
          "name": "name",
          "type": "string"
        },
        {
          "indexed": false,
          "internalType": "uint256",
          "name": "price",
          "type": "uint256"
        }
      ],
      "name": "ProductUpdated",
      "type": "event"
    },
    {
      "anonymous": false,
      "inputs": [
        {
          "indexed": false,
          "internalType": "address",
          "name": "user",
          "type": "address"
        }
      ],
      "name": "UserRegistered",
      "type": "event"
    },
    {
      "inputs": [],
      "name": "owner",
      "outputs": [
        {
          "internalType": "address",
          "name": "",
          "type": "address"
        }
      ],
      "stateMutability": "view",
      "type": "function",
      "constant": true
    },
    {
      "inputs": [],
      "name": "productCount",
      "outputs": [
        {
          "internalType": "uint256",
          "name": "",
          "type": "uint256"
        }
      ],
      "stateMutability": "view",
      "type": "function",
      "constant": true
    },
    {
      "inputs": [
        {
          "internalType": "uint256",
          "name": "",
          "type": "uint256"
        }
      ],
      "name": "products",
      "outputs": [
        {
          "internalType": "uint256",
          "name": "id",
          "type": "uint256"
        },
        {
          "internalType": "string",
          "name": "name",
          "type": "string"
        },
        {
          "internalType": "uint256",
          "name": "price",
          "type": "uint256"
        }
      ],
      "stateMutability": "view",
      "type": "function",
      "constant": true
    },
    {
      "inputs": [
        {
          "internalType": "address",
          "name": "",
          "type": "address"
        },
        {
          "internalType": "uint256",
          "name": "",
          "type": "uint256"
        }
      ],
      "name": "transactions",
      "outputs": [
        {
          "internalType": "address",
          "name": "customer",
          "type": "address"
        },
        {
          "internalType": "uint256",
          "name": "productId",
          "type": "uint256"
        },
        {
          "internalType": "uint256",
          "name": "amount",
          "type": "uint256"
        },
        {
          "internalType": "uint256",
          "name": "timestamp",
          "type": "uint256"
        }
      ],
      "stateMutability": "view",
      "type": "function",
      "constant": true
    },
    {
      "inputs": [
        {
          "internalType": "address",
          "name": "",
          "type": "address"
        }
      ],
      "name": "users",
      "outputs": [
        {
          "internalType": "bool",
          "name": "",
          "type": "bool"
        }
      ],
      "stateMutability": "view",
      "type": "function",
      "constant": true
    },
    {
      "inputs": [],
      "name": "registerUser",
      "outputs": [],
      "stateMutability": "nonpayable",
      "type": "function"
    },
    {
      "inputs": [
        {
          "internalType": "string",
          "name": "name",
          "type": "string"
        },
        {
          "internalType": "uint256",
          "name": "price",
          "type": "uint256"
        }
      ],
      "name": "addProduct",
      "outputs": [],
      "stateMutability": "nonpayable",
      "type": "function"
    },
    {
      "inputs": [
        {
          "internalType": "uint256",
          "name": "productId",
          "type": "uint256"
        },
        {
          "internalType": "string",
          "name": "name",
          "type": "string"
        },
        {
          "internalType": "uint256",
          "name": "price",
          "type": "uint256"
        }
      ],
      "name": "updateProduct",
      "outputs": [],
      "stateMutability": "nonpayable",
      "type": "function"
    },
    {
      "inputs": [
        {
          "internalType": "uint256",
          "name": "productId",
          "type": "uint256"
        }
      ],
      "name": "deleteProduct",
      "outputs": [],
      "stateMutability": "nonpayable",
      "type": "function"
    },
    {
      "inputs": [
        {
          "internalType": "uint256",
          "name": "productId",
          "type": "uint256"
        }
      ],
      "name": "buyProduct",
      "outputs": [],
      "stateMutability": "payable",
      "type": "function",
      "payable": true
    },
    {
      "inputs": [
        {
          "internalType": "address",
          "name": "user",
          "type": "address"
        }
      ],
      "name": "getTransactionHistory",
      "outputs": [
        {
          "components": [
            {
              "internalType": "address",
              "name": "customer",
              "type": "address"
            },
            {
              "internalType": "uint256",
              "name": "productId",
              "type": "uint256"
            },
            {
              "internalType": "uint256",
              "name": "amount",
              "type": "uint256"
            },
            {
              "internalType": "uint256",
              "name": "timestamp",
              "type": "uint256"
            }
          ],
          "internalType": "struct CoffeeShop.Transaction[]",
          "name": "",
          "type": "tuple[]"
        }
      ],
      "stateMutability": "view",
      "type": "function",
      "constant": true
    }
  ],
  "bytecode": "0x608060405234801561001057600080fd5b50336000806101000a81548173ffffffffffffffffffffffffffffffffffffffff021916908373ffffffffffffffffffffffffffffffffffffffff1602179055506116e4806100606000396000f3fe60806040526004361061009c5760003560e01c80638da5cb5b116100645780638da5cb5b1461017c578063a87430ba146101a7578063b15247d9146101e4578063d20cf0e81461020d578063e0f6ef871461024a578063ed90c7b7146102755761009c565b806314538128146100a15780634d3820eb146100e157806353488deb146100f85780637acc0b20146101215780638642269e14610160575b600080fd5b3480156100ad57600080fd5b506100c860048036038101906100c39190610e85565b61029e565b6040516100d894939291906112ac565b60405180910390f35b3480156100ed57600080fd5b506100f661030b565b005b34801561010457600080fd5b5061011f600480360381019061011a9190610f3e565b610428565b005b34801561012d57600080fd5b5061014860048036038101906101439190610f15565b6105b2565b604051610157939291906113e9565b60405180910390f35b61017a60048036038101906101759190610f15565b610664565b005b34801561018857600080fd5b506101916108e6565b60405161019e919061125a565b60405180910390f35b3480156101b357600080fd5b506101ce60048036038101906101c99190610e5c565b61090a565b6040516101db9190611313565b60405180910390f35b3480156101f057600080fd5b5061020b60048036038101906102069190610ec1565b61092a565b005b34801561021957600080fd5b50610234600480360381019061022f9190610e5c565b610a77565b60405161024191906112f1565b60405180910390f35b34801561025657600080fd5b5061025f610b89565b60405161026c91906113ce565b60405180910390f35b34801561028157600080fd5b5061029c60048036038101906102979190610f15565b610b8f565b005b600360205281600052604060002081815481106102ba57600080fd5b9060005260206000209060040201600091509150508060000160009054906101000a900473ffffffffffffffffffffffffffffffffffffffff16908060010154908060020154908060030154905084565b600160003373ffffffffffffffffffffffffffffffffffffffff1673ffffffffffffffffffffffffffffffffffffffff16815260200190815260200160002060009054906101000a900460ff1615610398576040517f08c379a000000000000000000000000000000000000000000000000000000000815260040161038f9061138e565b60405180910390fd5b60018060003373ffffffffffffffffffffffffffffffffffffffff1673ffffffffffffffffffffffffffffffffffffffff16815260200190815260200160002060006101000a81548160ff0219169083151502179055507f54db7a5cb4735e1aac1f53db512d3390390bb6637bd30ad4bf9fc98667d9b9b93360405161041e919061125a565b60405180910390a1565b60008054906101000a900473ffffffffffffffffffffffffffffffffffffffff1673ffffffffffffffffffffffffffffffffffffffff163373ffffffffffffffffffffffffffffffffffffffff16146104b6576040517f08c379a00000000000000000000000000000000000000000000000000000000081526004016104ad906113ae565b60405180910390fd5b600060026000858152602001908152602001600020600001541415610510576040517f08c379a00000000000000000000000000000000000000000000000000000000081526004016105079061132e565b60405180910390fd5b60405180606001604052808481526020018381526020018281525060026000858152602001908152602001600020600082015181600001556020820151816001019080519060200190610564929190610ce7565b50604082015181600201559050507ff9b1d9170fbe32752353e00d62e5276b143166c75aa974030dddfac2895601fe8383836040516105a5939291906113e9565b60405180910390a1505050565b60026020528060005260406000206000915090508060000154908060010180546105db90611567565b80601f016020809104026020016040519081016040528092919081815260200182805461060790611567565b80156106545780601f1061062957610100808354040283529160200191610654565b820191906000526020600020905b81548152906001019060200180831161063757829003601f168201915b5050505050908060020154905083565b600160003373ffffffffffffffffffffffffffffffffffffffff1673ffffffffffffffffffffffffffffffffffffffff16815260200190815260200160002060009054906101000a900460ff166106f0576040517f08c379a00000000000000000000000000000000000000000000000000000000081526004016106e79061134e565b60405180910390fd5b60006002600083815260200190815260200160002060000154141561074a576040517f08c379a00000000000000000000000000000000000000000000000000000000081526004016107419061132e565b60405180910390fd5b600260008281526020019081526020016000206002015434146107a2576040517f08c379a00000000000000000000000000000000000000000000000000000000081526004016107999061136e565b60405180910390fd5b600360003373ffffffffffffffffffffffffffffffffffffffff1673ffffffffffffffffffffffffffffffffffffffff16815260200190815260200160002060405180608001604052803373ffffffffffffffffffffffffffffffffffffffff16815260200183815260200134815260200142815250908060018154018082558091505060019003906000526020600020906004020160009091909190915060008201518160000160006101000a81548173ffffffffffffffffffffffffffffffffffffffff021916908373ffffffffffffffffffffffffffffffffffffffff16021790555060208201518160010155604082015181600201556060820151816003015550507fc65a4e529c0450a515882508bea7ee3485fbfdf8436e0bd13dc38dfbc859b1cb3382346040516108db93929190611275565b60405180910390a150565b60008054906101000a900473ffffffffffffffffffffffffffffffffffffffff1681565b60016020528060005260406000206000915054906101000a900460ff1681565b60008054906101000a900473ffffffffffffffffffffffffffffffffffffffff1673ffffffffffffffffffffffffffffffffffffffff163373ffffffffffffffffffffffffffffffffffffffff16146109b8576040517f08c379a00000000000000000000000000000000000000000000000000000000081526004016109af906113ae565b60405180910390fd5b600460008154809291906109cb90611599565b91905055506040518060600160405280600454815260200183815260200182815250600260006004548152602001908152602001600020600082015181600001556020820151816001019080519060200190610a28929190610ce7565b50604082015181600201559050507fcca07c742c5274e8b72111ba69566aa4442450bfc50bd897ea38d0170d1accfc6004548383604051610a6b939291906113e9565b60405180910390a15050565b6060600360008373ffffffffffffffffffffffffffffffffffffffff1673ffffffffffffffffffffffffffffffffffffffff168152602001908152602001600020805480602002602001604051908101604052809291908181526020016000905b82821015610b7e57838290600052602060002090600402016040518060800160405290816000820160009054906101000a900473ffffffffffffffffffffffffffffffffffffffff1673ffffffffffffffffffffffffffffffffffffffff1673ffffffffffffffffffffffffffffffffffffffff168152602001600182015481526020016002820154815260200160038201548152505081526020019060010190610ad8565b505050509050919050565b60045481565b60008054906101000a900473ffffffffffffffffffffffffffffffffffffffff1673ffffffffffffffffffffffffffffffffffffffff163373ffffffffffffffffffffffffffffffffffffffff1614610c1d576040517f08c379a0000000000000000000000000000000000000000000000000000000008152600401610c14906113ae565b60405180910390fd5b600060026000838152602001908152602001600020600001541415610c77576040517f08c379a0000000000000000000000000000000000000000000000000000000008152600401610c6e9061132e565b60405180910390fd5b60026000828152602001908152602001600020600080820160009055600182016000610ca39190610d6d565b600282016000905550507fc341cf326465fe622f86c468249e8c0cb03ed23ba376a6a34863a1374ac7d76981604051610cdc91906113ce565b60405180910390a150565b828054610cf390611567565b90600052602060002090601f016020900481019282610d155760008555610d5c565b82601f10610d2e57805160ff1916838001178555610d5c565b82800160010185558215610d5c579182015b82811115610d5b578251825591602001919060010190610d40565b5b509050610d699190610dad565b5090565b508054610d7990611567565b6000825580601f10610d8b5750610daa565b601f016020900490600052602060002090810190610da99190610dad565b5b50565b5b80821115610dc6576000816000905550600101610dae565b5090565b6000610ddd610dd884611458565b611427565b905082815260208101848484011115610df557600080fd5b610e00848285611525565b509392505050565b600081359050610e1781611680565b92915050565b600082601f830112610e2e57600080fd5b8135610e3e848260208601610dca565b91505092915050565b600081359050610e5681611697565b92915050565b600060208284031215610e6e57600080fd5b6000610e7c84828501610e08565b91505092915050565b60008060408385031215610e9857600080fd5b6000610ea685828601610e08565b9250506020610eb785828601610e47565b9150509250929050565b60008060408385031215610ed457600080fd5b600083013567ffffffffffffffff811115610eee57600080fd5b610efa85828601610e1d565b9250506020610f0b85828601610e47565b9150509250929050565b600060208284031215610f2757600080fd5b6000610f3584828501610e47565b91505092915050565b600080600060608486031215610f5357600080fd5b6000610f6186828701610e47565b935050602084013567ffffffffffffffff811115610f7e57600080fd5b610f8a86828701610e1d565b9250506040610f9b86828701610e47565b9150509250925092565b6000610fb183836111e7565b60808301905092915050565b610fc6816114dd565b82525050565b610fd5816114dd565b82525050565b6000610fe682611498565b610ff081856114bb565b9350610ffb83611488565b8060005b8381101561102c5781516110138882610fa5565b975061101e836114ae565b925050600181019050610fff565b5085935050505092915050565b611042816114ef565b82525050565b6000611053826114a3565b61105d81856114cc565b935061106d818560208601611534565b6110768161166f565b840191505092915050565b600061108e6016836114cc565b91507f50726f6475637420646f6573206e6f74206578697374000000000000000000006000830152602082019050919050565b60006110ce6013836114cc565b91507f55736572206e6f742072656769737465726564000000000000000000000000006000830152602082019050919050565b600061110e6014836114cc565b91507f496e636f72726563742076616c75652073656e740000000000000000000000006000830152602082019050919050565b600061114e6017836114cc565b91507f5573657220616c726561647920726567697374657265640000000000000000006000830152602082019050919050565b600061118e6022836114cc565b91507f4f6e6c79206f776e65722063616e20706572666f726d2074686973206163746960008301527f6f6e0000000000000000000000000000000000000000000000000000000000006020830152604082019050919050565b6080820160008201516111fd6000850182610fbd565b506020820151611210602085018261123c565b506040820151611223604085018261123c565b506060820151611236606085018261123c565b50505050565b6112458161151b565b82525050565b6112548161151b565b82525050565b600060208201905061126f6000830184610fcc565b92915050565b600060608201905061128a6000830186610fcc565b611297602083018561124b565b6112a4604083018461124b565b949350505050565b60006080820190506112c16000830187610fcc565b6112ce602083018661124b565b6112db604083018561124b565b6112e8606083018461124b565b95945050505050565b6000602082019050818103600083015261130b8184610fdb565b905092915050565b60006020820190506113286000830184611039565b92915050565b6000602082019050818103600083015261134781611081565b9050919050565b60006020820190508181036000830152611367816110c1565b9050919050565b6000602082019050818103600083015261138781611101565b9050919050565b600060208201905081810360008301526113a781611141565b9050919050565b600060208201905081810360008301526113c781611181565b9050919050565b60006020820190506113e3600083018461124b565b92915050565b60006060820190506113fe600083018661124b565b81810360208301526114108185611048565b905061141f604083018461124b565b949350505050565b6000604051905081810181811067ffffffffffffffff8211171561144e5761144d611640565b5b8060405250919050565b600067ffffffffffffffff82111561147357611472611640565b5b601f19601f8301169050602081019050919050565b6000819050602082019050919050565b600081519050919050565b600081519050919050565b6000602082019050919050565b600082825260208201905092915050565b600082825260208201905092915050565b60006114e8826114fb565b9050919050565b60008115159050919050565b600073ffffffffffffffffffffffffffffffffffffffff82169050919050565b6000819050919050565b82818337600083830152505050565b60005b83811015611552578082015181840152602081019050611537565b83811115611561576000848401525b50505050565b6000600282049050600182168061157f57607f821691505b6020821081141561159357611592611611565b5b50919050565b60006115a48261151b565b91507fffffffffffffffffffffffffffffffffffffffffffffffffffffffffffffffff8214156115d7576115d66115e2565b5b600182019050919050565b7f4e487b7100000000000000000000000000000000000000000000000000000000600052601160045260246000fd5b7f4e487b7100000000000000000000000000000000000000000000000000000000600052602260045260246000fd5b7f4e487b7100000000000000000000000000000000000000000000000000000000600052604160045260246000fd5b6000601f19601f8301169050919050565b611689816114dd565b811461169457600080fd5b50565b6116a08161151b565b81146116ab57600080fd5b5056fea2646970667358221220a13f8804644d5ff64cf24c30466b6ee74a2cc57ff304d65fe299cab69b4241aa64736f6c63430008000033",
  "immutableReferences": {},
  "source": "// SPDX-License-Identifier: MIT\r\npragma solidity ^0.8.0;\r\n\r\ncontract CoffeeShop {\r\n    struct Product {\r\n        uint id;\r\n        string name;\r\n        uint price;\r\n    }\r\n\r\n    struct Transaction {\r\n        address customer;\r\n        uint productId;\r\n        uint amount;\r\n        uint timestamp;\r\n    }\r\n\r\n    address public owner;\r\n    mapping(address => bool) public users;\r\n    mapping(uint => Product) public products;\r\n    mapping(address => Transaction[]) public transactions;\r\n    uint public productCount;\r\n\r\n    event UserRegistered(address user);\r\n    event ProductAdded(uint productId, string name, uint price);\r\n    event ProductUpdated(uint productId, string name, uint price);\r\n    event ProductDeleted(uint productId);\r\n    event PaymentMade(address customer, uint productId, uint amount);\r\n\r\n    modifier onlyOwner() {\r\n        require(msg.sender == owner, \"Only owner can perform this action\");\r\n        _;\r\n    }\r\n\r\n    constructor() {\r\n        owner = msg.sender;\r\n    }\r\n\r\n    function registerUser() public {\r\n        require(!users[msg.sender], \"User already registered\");\r\n        users[msg.sender] = true;\r\n        emit UserRegistered(msg.sender);\r\n    }\r\n\r\n    function addProduct(string memory name, uint price) public onlyOwner {\r\n        productCount++;\r\n        products[productCount] = Product(productCount, name, price);\r\n        emit ProductAdded(productCount, name, price);\r\n    }\r\n\r\n    function updateProduct(uint productId, string memory name, uint price) public onlyOwner {\r\n        require(products[productId].id != 0, \"Product does not exist\");\r\n        products[productId] = Product(productId, name, price);\r\n        emit ProductUpdated(productId, name, price);\r\n    }\r\n\r\n    function deleteProduct(uint productId) public onlyOwner {\r\n        require(products[productId].id != 0, \"Product does not exist\");\r\n        delete products[productId];\r\n        emit ProductDeleted(productId);\r\n    }\r\n\r\n    function buyProduct(uint productId) public payable {\r\n        require(users[msg.sender], \"User not registered\");\r\n        require(products[productId].id != 0, \"Product does not exist\");\r\n        require(msg.value == products[productId].price, \"Incorrect value sent\");\r\n\r\n        transactions[msg.sender].push(Transaction(msg.sender, productId, msg.value, block.timestamp));\r\n        emit PaymentMade(msg.sender, productId, msg.value);\r\n    }\r\n\r\n    function getTransactionHistory(address user) public view returns (Transaction[] memory) {\r\n        return transactions[user];\r\n    }\r\n}\r\n",
  "sourcePath": "D:\\hc\\Coffee-Blockchain\\contracts\\CoffeeShop.sol",
  "compiler": {
    "name": "solc",
    "version": "0.8.0+commit.c7dfd78e.Emscripten.clang"
  },
  "schemaVersion": "3.4.16",
  "updatedAt": "2025-03-04T03:49:00.469Z",
  "networkType": "ethereum",
  "devdoc": {
    "kind": "dev",
    "methods": {},
    "version": 1
  },
  "userdoc": {
    "kind": "user",
    "methods": {},
    "version": 1
  }
}